:100000000C942A000C947F010C9447000C94470038
:100010000C9447000C9447000C9447000C94470044
:100020000C9447000C9447000C9447000C94470034
:100030000C9447000C9447000C9447000C94470024
:100040000C9447000C9447000C9447000C94470014
:100050000C94470011241FBECFE5D8E0DEBFCDBF12
:1000600010E0A0E6B0E0ECE3FBE002C005900D92EA
:10007000A236B107D9F720E0A2E6B0E001C01D9298
:10008000A636B207E1F70E94C2010C949C050C94BD
:10009000000062E084E40E94AF0160E082E40E941C
:1000A000B30161E082E40E94B30162E082E40E9455
:1000B000B30160E081E40E94B30161E081E40E9449
:1000C000B30162E081E40E94B3010E94F2027894DD
:1000D00085B7836085BF8BB780648BBF089580919F
:1000E0006500811140C060E082E40E94BB0161E0D4
:1000F00082E40E94BB0162E082E40E94BB0160E0F6
:1001000081E40E94BB0161E081E40E94BB0162E0E6
:1001100081E40E94BB0180916000811104C062E013
:1001200082E40E94B70181E08093600060E081E496
:100130000E94B7010DC084EF91E00E94F40280910B
:100140006000882349F0809162008F5F8093620095
:10015000809162008A3078F31092620081E080938F
:1001600065001092640080916500813009F078C0CC
:1001700060E082E40E94BB0161E082E40E94BB0176
:1001800062E082E40E94BB0160E081E40E94BB0166
:1001900061E081E40E94BB0162E081E40E94BB0156
:1001A00080916000813021F580916400811104C04C
:1001B00082E08093650016C08230A1F41092650041
:1001C00011C061E081E40E94BF0184EF91E00E94D0
:1001D000F402809163008F5F8093630080916000E0
:1001E000882321F0809163008A3058F310926300D5
:1001F00080916000811134C080916400811108C039
:1002000062E082E40E94B70182E08093650008C04A
:10021000823031F460E082E40E94B7011092650000
:1002200061E082E40E94BB0161E081E40E94BB01C5
:1002300011C061E082E40E94BF0161E081E40E949C
:10024000BF0184EF91E00E94F402809163008F5F10
:1002500080936300809163008A3058F310926300AA
:1002600080916500823009F049C08093640060E0AD
:1002700082E40E94BB0161E082E40E94BB0162E073
:1002800082E40E94BB0160E081E40E94BB0161E066
:1002900081E40E94BB0162E081E40E94BB01809185
:1002A00060008130C1F462E081E40E94B7010DC0BA
:1002B00084EF91E00E94F40280916000882349F06D
:1002C000809162008F5F80936200809162008A302B
:1002D00078F3109262008091600081110CC062E09E
:1002E00081E40E94B70160E082E40E94B70188E8DF
:1002F00093E10E94F40281E08093650008951F92CB
:100300000F920FB60F9211242F933F934F935F9349
:100310006F937F938F939F93AF93BF93EF93FF93CD
:100320001092600080916500813041F480916400FA
:10033000811104C062E082E40E94B701FF91EF9155
:10034000BF91AF919F918F917F916F915F914F91ED
:100350003F912F910F900FBE0F901F90189540E086
:100360000E94C701089541E00E94C701089541E03D
:100370000E944102089540E00E94410208950E94B7
:10038000BB0208950E9449000E946F00FDCF823495
:1003900031F118F4813439F008958334E1F1843473
:1003A00009F454C0089541110CC02AB381E090E0D3
:1003B00002C0880F991F6A95E2F7809582238ABB55
:1003C0000895413009F05CC02AB381E090E002C09A
:1003D000880F991F6A95E2F7822B8ABB0895411115
:1003E0000CC027B381E090E002C0880F991F6A9586
:1003F000E2F78095822387BB0895413009F040C021
:1004000027B381E090E002C0880F991F6A95E2F758
:10041000822B87BB089541110CC024B381E090E08A
:1004200002C0880F991F6A95E2F78095822384BBEA
:100430000895413029F524B381E090E002C0880F8F
:10044000991F6A95E2F7822B84BB089541110CC075
:1004500021B381E090E002C0880F991F6A95E2F70E
:100460008095822381BB0895413051F421B381E00E
:1004700090E002C0880F991F6A95E2F7822B81BB3A
:100480000895823431F118F4813439F008958334B9
:10049000E1F1843409F454C0089541110CC02BB328
:1004A00081E090E002C0880F991F6A95E2F780957D
:1004B00082238BBB0895413009F05CC02BB381E0EF
:1004C00090E002C0880F991F6A95E2F7822B8BBBE0
:1004D000089541110CC028B381E090E002C0880F5C
:1004E000991F6A95E2F78095822388BB0895413071
:1004F00009F040C028B381E090E002C0880F991F46
:100500006A95E2F7822B88BB089541110CC025B390
:1005100081E090E002C0880F991F6A95E2F780950C
:10052000822385BB0895413029F525B381E090E011
:1005300002C0880F991F6A95E2F7822B85BB089548
:1005400041110CC022B381E090E002C0880F991FD6
:100550006A95E2F78095822382BB0895413051F479
:1005600022B381E090E002C0880F991F6A95E2F7FC
:10057000822B82BB08958234A1F018F4813431F0CB
:1005800008958334C9F0843411F108952BB381E0C8
:1005900090E002C0880F991F6A95E2F782278BBB13
:1005A000089528B381E090E002C0880F991F6A95F2
:1005B000E2F7822788BB089525B381E090E002C06E
:1005C000880F991F6A95E2F7822785BB089522B3A9
:1005D00081E090E002C0880F991F6A95E2F78227B8
:1005E00082BB089513BE08958F929F92AF92BF92DF
:1005F000CF92DF92EF92FF92CF93DF93BC0180E026
:1006000090E00E94A4046B017C012FE632E143E8F4
:1006100052E40E94FE0388239CF4A70196016FE632
:1006200072E183E892E40E947A032FE632E143E824
:100630005EE30E9403040E947504C1E0D0E03CC068
:100640002FE632E143E852E4C701B6010E94970564
:1006500018167CF52FE632E143E852E4C701B601F3
:100660000E9403040E94E7030E9475044B015C0191
:10067000EB012FE632E143E85EE3C701B6010E94D9
:1006800003046B017C01B40180E090E00E94A404AB
:100690009B01AC01C701B6010E9403049B01AC01A0
:1006A00060E070E080E893E40E947A030E947504A1
:1006B00003C060E0C1E0D0E062BF83B7846083BF65
:1006C00020E030E008C008B600FEFDCF88B78160AA
:1006D00088BF2F5F3F4F2C173D07A8F313BEDF9154
:1006E000CF91FF90EF90DF90CF90BF90AF909F9011
:1006F0008F9008955058BB27AA270E9492030C940C
:1007000045050E94370538F00E943E0520F039F477
:100710009F3F19F426F40C9434050EF4E095E7FBA2
:100720000C940505E92F0E94560558F3BA17620785
:1007300073078407950720F079F4A6F50C949005CB
:100740000EF4E0950B2EBA2FA02D0B01B9019001EC
:100750000C01CA01A0011124FF27591B99F0593F30
:1007600050F4503E68F11A16F040A22F232F342F78
:100770004427585FF3CF469537952795A795F040C6
:100780005395C9F77EF41F16BA0B620B730B840BDB
:10079000BAF09150A1F0FF0FBB1F661F771F881F93
:1007A000C2F70EC0BA0F621F731F841F48F48795EB
:1007B00077956795B795F7959E3F08F0B0CF9395DD
:1007C000880F08F09927EE0F9795879508950E9456
:1007D000780590F09F3748F4911116F40C94910528
:1007E00060E070E080E89FE3089526F01B16611D2D
:1007F000711D811D0C940B050C9426050E94E104CB
:1008000008F481E008950E9417040C9445050E94A5
:100810003E0558F00E94370540F029F45F3F29F06B
:100820000C94050551110C9491050C9434050E940B
:10083000560568F39923B1F3552391F3951B550B96
:10084000BB27AA2762177307840738F09F5F5F4FA3
:10085000220F331F441FAA1FA9F335D00E2E3AF0E2
:10086000E0E832D091505040E695001CCAF72BD0FA
:10087000FE2F29D0660F771F881FBB1F261737074B
:100880004807AB07B0E809F0BB0B802DBF01FF277D
:1008900093585F4F3AF09E3F510578F00C94050550
:1008A0000C9491055F3FE4F3983ED4F386957795D9
:1008B0006795B795F7959F5FC9F7880F911D969536
:1008C000879597F90895E1E0660F771F881FBB1F92
:1008D000621773078407BA0720F0621B730B840B3F
:1008E000BA0BEE1F88F7E09508950E945E0588F028
:1008F0009F5798F0B92F9927B751B0F0E1F0660FE4
:10090000771F881F991F1AF0BA95C9F714C0B13024
:1009100091F00E949005B1E008950C949005672F26
:10092000782F8827B85F39F0B93FCCF38695779553
:100930006795B395D9F73EF490958095709561953C
:100940007F4F8F4F9F4F0895E89409C097FB3EF467
:1009500090958095709561957F4F8F4F9F4F99230C
:10096000A9F0F92F96E9BB279395F695879577958A
:100970006795B795F111F8CFFAF4BB0F11F460FF4A
:100980001BC06F5F7F4F8F4F9F4F16C0882311F0A2
:1009900096E911C0772321F09EE8872F762F05C0B6
:1009A000662371F096E8862F70E060E02AF09A9551
:1009B000660F771F881FDAF7880F9695879597F946
:1009C0000895990F0008550FAA0BE0E8FEEF1616E0
:1009D0001706E807F907C0F012161306E407F50733
:1009E00098F0621B730B840B950B39F40A2661F0A7
:1009F000232B242B252B21F408950A2609F4A1404A
:100A0000A6958FEF811D811D089597F99F6780E856
:100A100070E060E00895882371F4772321F0985006
:100A2000872B762F07C0662311F499270DC09051AC
:100A3000862B70E060E02AF09A95660F771F881F7A
:100A4000DAF7880F9695879597F908959F3F31F0CB
:100A5000915020F4879577956795B795880F911DEC
:100A60009695879597F908959FEF80EC0895002457
:100A70000A941616170618060906089500240A9403
:100A800012161306140605060895092E0394000C89
:100A900011F4882352F0BB0F40F4BF2B11F460FF18
:100AA00004C06F5F7F4F8F4F9F4F089557FD905841
:100AB000440F551F59F05F3F71F04795880F97FB22
:100AC000991F61F09F3F79F08795089512161306DC
:100AD0001406551FF2CF4695F1DF08C0161617060B
:100AE0001806991FF1CF8695710561050894089540
:100AF0000E945E05A0F0BEE7B91788F4BB279F38B7
:100B000060F41616B11D672F782F8827985FF7CFEE
:100B1000869577956795B11D93959639C8F3089595
:100B2000E894BB2766277727CB0197F908950E94A1
:0C0B3000E10408F48FEF0895F894FFCF63
:020B3C000100B6
:00000001FF
